{
  "address": "0xB77655d8e31940112044Ac01Cc11E95E839565cE",
  "abi": [
    {
      "inputs": [
        {
          "internalType": "address",
          "name": "vrfCoordinatorV2",
          "type": "address"
        },
        {
          "internalType": "uint256",
          "name": "enterenceFee",
          "type": "uint256"
        },
        {
          "internalType": "bytes32",
          "name": "gasLane",
          "type": "bytes32"
        },
        {
          "internalType": "uint64",
          "name": "subscriptionId",
          "type": "uint64"
        },
        {
          "internalType": "uint32",
          "name": "callbackGasLimit",
          "type": "uint32"
        },
        {
          "internalType": "uint256",
          "name": "interval",
          "type": "uint256"
        }
      ],
      "stateMutability": "nonpayable",
      "type": "constructor"
    },
    {
      "inputs": [
        {
          "internalType": "address",
          "name": "have",
          "type": "address"
        },
        {
          "internalType": "address",
          "name": "want",
          "type": "address"
        }
      ],
      "name": "OnlyCoordinatorCanFulfill",
      "type": "error"
    },
    {
      "inputs": [],
      "name": "Raffle_TransferFailed",
      "type": "error"
    },
    {
      "inputs": [],
      "name": "Raffle_notEnoughEth",
      "type": "error"
    },
    {
      "inputs": [],
      "name": "Raffle_notOpen",
      "type": "error"
    },
    {
      "inputs": [
        {
          "internalType": "uint256",
          "name": "",
          "type": "uint256"
        },
        {
          "internalType": "uint256",
          "name": "",
          "type": "uint256"
        },
        {
          "internalType": "uint256",
          "name": "",
          "type": "uint256"
        },
        {
          "internalType": "uint256",
          "name": "",
          "type": "uint256"
        },
        {
          "internalType": "uint256",
          "name": "",
          "type": "uint256"
        },
        {
          "internalType": "bool",
          "name": "",
          "type": "bool"
        }
      ],
      "name": "Raffle_upKeepNotNeeded",
      "type": "error"
    },
    {
      "anonymous": false,
      "inputs": [
        {
          "indexed": true,
          "internalType": "address",
          "name": "from",
          "type": "address"
        },
        {
          "indexed": true,
          "internalType": "address",
          "name": "to",
          "type": "address"
        }
      ],
      "name": "OwnershipTransferRequested",
      "type": "event"
    },
    {
      "anonymous": false,
      "inputs": [
        {
          "indexed": true,
          "internalType": "address",
          "name": "from",
          "type": "address"
        },
        {
          "indexed": true,
          "internalType": "address",
          "name": "to",
          "type": "address"
        }
      ],
      "name": "OwnershipTransferred",
      "type": "event"
    },
    {
      "anonymous": false,
      "inputs": [
        {
          "indexed": true,
          "internalType": "address",
          "name": "player",
          "type": "address"
        }
      ],
      "name": "RaffleEnter",
      "type": "event"
    },
    {
      "anonymous": false,
      "inputs": [
        {
          "indexed": true,
          "internalType": "uint256",
          "name": "requestId",
          "type": "uint256"
        }
      ],
      "name": "RequestedRaffleWinner",
      "type": "event"
    },
    {
      "anonymous": false,
      "inputs": [
        {
          "indexed": true,
          "internalType": "address",
          "name": "winner",
          "type": "address"
        }
      ],
      "name": "WinnerPicked",
      "type": "event"
    },
    {
      "inputs": [],
      "name": "acceptOwnership",
      "outputs": [],
      "stateMutability": "nonpayable",
      "type": "function"
    },
    {
      "inputs": [
        {
          "internalType": "bytes",
          "name": "",
          "type": "bytes"
        }
      ],
      "name": "checkUpkeep",
      "outputs": [
        {
          "internalType": "bool",
          "name": "upkeepNeeded",
          "type": "bool"
        },
        {
          "internalType": "bytes",
          "name": "",
          "type": "bytes"
        }
      ],
      "stateMutability": "view",
      "type": "function"
    },
    {
      "inputs": [],
      "name": "enterRaffle",
      "outputs": [],
      "stateMutability": "payable",
      "type": "function"
    },
    {
      "inputs": [],
      "name": "getEnteranceFee",
      "outputs": [
        {
          "internalType": "uint256",
          "name": "",
          "type": "uint256"
        }
      ],
      "stateMutability": "view",
      "type": "function"
    },
    {
      "inputs": [],
      "name": "getInterval",
      "outputs": [
        {
          "internalType": "uint256",
          "name": "",
          "type": "uint256"
        }
      ],
      "stateMutability": "view",
      "type": "function"
    },
    {
      "inputs": [],
      "name": "getLatestTimeStamp",
      "outputs": [
        {
          "internalType": "uint256",
          "name": "",
          "type": "uint256"
        }
      ],
      "stateMutability": "view",
      "type": "function"
    },
    {
      "inputs": [],
      "name": "getNumWords",
      "outputs": [
        {
          "internalType": "uint32",
          "name": "",
          "type": "uint32"
        }
      ],
      "stateMutability": "pure",
      "type": "function"
    },
    {
      "inputs": [],
      "name": "getNumberOfPlayer",
      "outputs": [
        {
          "internalType": "uint256",
          "name": "",
          "type": "uint256"
        }
      ],
      "stateMutability": "view",
      "type": "function"
    },
    {
      "inputs": [
        {
          "internalType": "uint256",
          "name": "index",
          "type": "uint256"
        }
      ],
      "name": "getPlayer",
      "outputs": [
        {
          "internalType": "address",
          "name": "",
          "type": "address"
        }
      ],
      "stateMutability": "view",
      "type": "function"
    },
    {
      "inputs": [],
      "name": "getRaffleState",
      "outputs": [
        {
          "internalType": "enum Raffle.RaffleState",
          "name": "",
          "type": "uint8"
        }
      ],
      "stateMutability": "view",
      "type": "function"
    },
    {
      "inputs": [],
      "name": "getRecentWinner",
      "outputs": [
        {
          "internalType": "address",
          "name": "",
          "type": "address"
        }
      ],
      "stateMutability": "view",
      "type": "function"
    },
    {
      "inputs": [],
      "name": "getRequestConfirmation",
      "outputs": [
        {
          "internalType": "uint256",
          "name": "",
          "type": "uint256"
        }
      ],
      "stateMutability": "pure",
      "type": "function"
    },
    {
      "inputs": [],
      "name": "owner",
      "outputs": [
        {
          "internalType": "address",
          "name": "",
          "type": "address"
        }
      ],
      "stateMutability": "view",
      "type": "function"
    },
    {
      "inputs": [
        {
          "internalType": "bytes",
          "name": "",
          "type": "bytes"
        }
      ],
      "name": "performUpkeep",
      "outputs": [],
      "stateMutability": "nonpayable",
      "type": "function"
    },
    {
      "inputs": [
        {
          "internalType": "uint256",
          "name": "requestId",
          "type": "uint256"
        },
        {
          "internalType": "uint256[]",
          "name": "randomWords",
          "type": "uint256[]"
        }
      ],
      "name": "rawFulfillRandomWords",
      "outputs": [],
      "stateMutability": "nonpayable",
      "type": "function"
    },
    {
      "inputs": [
        {
          "internalType": "address",
          "name": "to",
          "type": "address"
        }
      ],
      "name": "transferOwnership",
      "outputs": [],
      "stateMutability": "nonpayable",
      "type": "function"
    }
  ],
  "transactionHash": "0xb049450a661e7e95de127382e90bbb3ab5767d9e6321e7198f9212bd1070d8ac",
  "args": [
    "0x8103B0A8A00be2DDC778e6e7eaa21791Cd364625",
    "100",
    "0x474e34a077df58807dbe9c96d3c009b23b3c6d0cce433e59bbf5b34f823bc56c",
    "4219",
    "500000",
    "30"
  ],
  "numDeployments": 3,
  "solcInputHash": "d9c5ac51cfbb86482c0020f12a499b7b",
  "bytecode": "0x6101606040523480156200001257600080fd5b50604051620021f4380380620021f48339818101604052810190620000389190620003de565b33806000888073ffffffffffffffffffffffffffffffffffffffff1660808173ffffffffffffffffffffffffffffffffffffffff1660601b8152505050600073ffffffffffffffffffffffffffffffffffffffff168273ffffffffffffffffffffffffffffffffffffffff161415620000e8576040517f08c379a0000000000000000000000000000000000000000000000000000000008152600401620000df90620004c8565b60405180910390fd5b816000806101000a81548173ffffffffffffffffffffffffffffffffffffffff021916908373ffffffffffffffffffffffffffffffffffffffff160217905550600073ffffffffffffffffffffffffffffffffffffffff168173ffffffffffffffffffffffffffffffffffffffff16146200016f576200016e816200023b60201b60201c565b5b5050508460a081815250508573ffffffffffffffffffffffffffffffffffffffff1660c08173ffffffffffffffffffffffffffffffffffffffff1660601b815250508360e081815250508267ffffffffffffffff166101008167ffffffffffffffff1660c01b815250508163ffffffff166101208163ffffffff1660e01b815250506000600460146101000a81548160ff021916908360018111156200021a576200021962000589565b5b02179055504260038190555080610140818152505050505050505062000691565b3373ffffffffffffffffffffffffffffffffffffffff168173ffffffffffffffffffffffffffffffffffffffff161415620002ad576040517f08c379a0000000000000000000000000000000000000000000000000000000008152600401620002a490620004ea565b60405180910390fd5b80600160006101000a81548173ffffffffffffffffffffffffffffffffffffffff021916908373ffffffffffffffffffffffffffffffffffffffff1602179055508073ffffffffffffffffffffffffffffffffffffffff1660008054906101000a900473ffffffffffffffffffffffffffffffffffffffff1673ffffffffffffffffffffffffffffffffffffffff167fed8889f560326eb138920d842192f0eb3dd22b4f139c87a2c57538e05bae127860405160405180910390a350565b6000815190506200037c816200060f565b92915050565b600081519050620003938162000629565b92915050565b600081519050620003aa8162000643565b92915050565b600081519050620003c1816200065d565b92915050565b600081519050620003d88162000677565b92915050565b60008060008060008060c08789031215620003fe57620003fd620005b8565b5b60006200040e89828a016200036b565b96505060206200042189828a0162000399565b95505060406200043489828a0162000382565b94505060606200044789828a01620003c7565b93505060806200045a89828a01620003b0565b92505060a06200046d89828a0162000399565b9150509295509295509295565b6000620004896018836200050c565b91506200049682620005bd565b602082019050919050565b6000620004b06017836200050c565b9150620004bd82620005e6565b602082019050919050565b60006020820190508181036000830152620004e3816200047a565b9050919050565b600060208201905081810360008301526200050581620004a1565b9050919050565b600082825260208201905092915050565b60006200052a826200053b565b9050919050565b6000819050919050565b600073ffffffffffffffffffffffffffffffffffffffff82169050919050565b6000819050919050565b600063ffffffff82169050919050565b600067ffffffffffffffff82169050919050565b7f4e487b7100000000000000000000000000000000000000000000000000000000600052602160045260246000fd5b600080fd5b7f43616e6e6f7420736574206f776e657220746f207a65726f0000000000000000600082015250565b7f43616e6e6f74207472616e7366657220746f2073656c66000000000000000000600082015250565b6200061a816200051d565b81146200062657600080fd5b50565b620006348162000531565b81146200064057600080fd5b50565b6200064e816200055b565b81146200065a57600080fd5b50565b620006688162000565565b81146200067457600080fd5b50565b620006828162000575565b81146200068e57600080fd5b50565b60805160601c60a05160c05160601c60e0516101005160c01c6101205160e01c61014051611ae0620007146000396000818161062f015281816108b30152610b1d0152600061074d0152600061072a01526000610709015260006106cd01526000818161046b01526108430152600081816103ab01526103ff0152611ae06000f3fe6080604052600436106100f35760003560e01c80636e04ff0d1161008a578063bd4d025c11610059578063bd4d025c146102d6578063ca6a9ef814610301578063e55ae4e81461032c578063f2fde38b14610369576100f3565b80636e04ff0d1461022b57806379ba5097146102695780638da5cb5b1461028057806391ad27b4146102ab576100f3565b80634585e33b116100c65780634585e33b14610181578063473f1ddc146101aa578063535bf50f146101d557806353a2c19a14610200576100f3565b8063115cbaf5146100f85780631fe543e3146101235780632cfcc5391461014c578063320229eb14610156575b600080fd5b34801561010457600080fd5b5061010d610392565b60405161011a9190611583565b60405180910390f35b34801561012f57600080fd5b5061014a6004803603810190610145919061130e565b6103a9565b005b610154610469565b005b34801561016257600080fd5b5061016b6105d8565b60405161017891906115fe565b60405180910390f35b34801561018d57600080fd5b506101a860048036038101906101a3919061121e565b6105e2565b005b3480156101b657600080fd5b506101bf610815565b6040516101cc91906114bc565b60405180910390f35b3480156101e157600080fd5b506101ea61083f565b6040516101f791906115fe565b60405180910390f35b34801561020c57600080fd5b50610215610867565b604051610222919061167a565b60405180910390f35b34801561023757600080fd5b50610252600480360381019061024d919061126b565b610870565b604051610260929190611500565b60405180910390f35b34801561027557600080fd5b5061027e61095b565b005b34801561028c57600080fd5b50610295610af0565b6040516102a291906114bc565b60405180910390f35b3480156102b757600080fd5b506102c0610b19565b6040516102cd91906115fe565b60405180910390f35b3480156102e257600080fd5b506102eb610b41565b6040516102f891906115fe565b60405180910390f35b34801561030d57600080fd5b50610316610b4e565b60405161032391906115fe565b60405180910390f35b34801561033857600080fd5b50610353600480360381019061034e91906112b4565b610b5b565b60405161036091906114bc565b60405180910390f35b34801561037557600080fd5b50610390600480360381019061038b91906111f1565b610ba3565b005b6000600460149054906101000a900460ff16905090565b7f000000000000000000000000000000000000000000000000000000000000000073ffffffffffffffffffffffffffffffffffffffff163373ffffffffffffffffffffffffffffffffffffffff161461045b57337f00000000000000000000000000000000000000000000000000000000000000006040517f1cf993f40000000000000000000000000000000000000000000000000000000081526004016104529291906114d7565b60405180910390fd5b6104658282610bb7565b5050565b7f00000000000000000000000000000000000000000000000000000000000000003410156104c3576040517ffe620c9500000000000000000000000000000000000000000000000000000000815260040160405180910390fd5b600060018111156104d7576104d661192e565b5b600460149054906101000a900460ff1660018111156104f9576104f861192e565b5b14610530576040517fe09c865100000000000000000000000000000000000000000000000000000000815260040160405180910390fd5b6002339080600181540180825580915050600190039060005260206000200160009091909190916101000a81548173ffffffffffffffffffffffffffffffffffffffff021916908373ffffffffffffffffffffffffffffffffffffffff1602179055503373ffffffffffffffffffffffffffffffffffffffff167f0805e1d667bddb8a95f0f09880cf94f403fb596ce79928d9f29b74203ba284d460405160405180910390a2565b6000600354905090565b60006105fc60405180602001604052806000815250610870565b5090508061069e5747600280549050600460149054906101000a900460ff16600181111561062d5761062c61192e565b5b7f00000000000000000000000000000000000000000000000000000000000000006003544261065c919061174f565b856040517f1c030c8200000000000000000000000000000000000000000000000000000000815260040161069596959493929190611619565b60405180910390fd5b6001600460146101000a81548160ff021916908360018111156106c4576106c361192e565b5b021790555060007f000000000000000000000000000000000000000000000000000000000000000073ffffffffffffffffffffffffffffffffffffffff16635d3b1d307f00000000000000000000000000000000000000000000000000000000000000007f000000000000000000000000000000000000000000000000000000000000000060037f000000000000000000000000000000000000000000000000000000000000000060016040518663ffffffff1660e01b815260040161078e959493929190611530565b602060405180830381600087803b1580156107a857600080fd5b505af11580156107bc573d6000803e3d6000fd5b505050506040513d601f19601f820116820180604052508101906107e091906112e1565b9050807fcd6e45c8998311cab7e9d4385596cac867e20a0587194b954fa3a731c93ce78b60405160405180910390a250505050565b6000600460009054906101000a900473ffffffffffffffffffffffffffffffffffffffff16905090565b60007f0000000000000000000000000000000000000000000000000000000000000000905090565b60006001905090565b600060606000600460149054906101000a900460ff1660018111156108985761089761192e565b5b600060018111156108ac576108ab61192e565b5b14905060007f0000000000000000000000000000000000000000000000000000000000000000600354426108e0919061174f565b1190506000806002805490501190506000804711905060008480156109025750835b801561090b5750825b80156109145750815b9050806040518060400160405280600381526020017f3078300000000000000000000000000000000000000000000000000000000000815250965096505050505050915091565b600160009054906101000a900473ffffffffffffffffffffffffffffffffffffffff1673ffffffffffffffffffffffffffffffffffffffff163373ffffffffffffffffffffffffffffffffffffffff16146109eb576040517f08c379a00000000000000000000000000000000000000000000000000000000081526004016109e29061159e565b60405180910390fd5b60008060009054906101000a900473ffffffffffffffffffffffffffffffffffffffff169050336000806101000a81548173ffffffffffffffffffffffffffffffffffffffff021916908373ffffffffffffffffffffffffffffffffffffffff1602179055506000600160006101000a81548173ffffffffffffffffffffffffffffffffffffffff021916908373ffffffffffffffffffffffffffffffffffffffff1602179055503373ffffffffffffffffffffffffffffffffffffffff168173ffffffffffffffffffffffffffffffffffffffff167f8be0079c531659141344cd1fd0a4f28419497f9722a3daafe3b4186f6b6457e060405160405180910390a350565b60008060009054906101000a900473ffffffffffffffffffffffffffffffffffffffff16905090565b60007f0000000000000000000000000000000000000000000000000000000000000000905090565b6000600280549050905090565b6000600361ffff16905090565b600060028281548110610b7157610b7061195d565b5b9060005260206000200160009054906101000a900473ffffffffffffffffffffffffffffffffffffffff169050919050565b610bab610dea565b610bb481610e7a565b50565b600060028054905082600081518110610bd357610bd261195d565b5b6020026020010151610be5919061189f565b9050600060028281548110610bfd57610bfc61195d565b5b9060005260206000200160009054906101000a900473ffffffffffffffffffffffffffffffffffffffff16905080600460006101000a81548173ffffffffffffffffffffffffffffffffffffffff021916908373ffffffffffffffffffffffffffffffffffffffff160217905550600067ffffffffffffffff811115610c8657610c8561198c565b5b604051908082528060200260200182016040528015610cb45781602001602082028036833780820191505090505b5060029080519060200190610cca929190610fa7565b506000600460146101000a81548160ff02191690836001811115610cf157610cf061192e565b5b02179055504260038190555060008173ffffffffffffffffffffffffffffffffffffffff1647604051610d23906114a7565b60006040518083038185875af1925050503d8060008114610d60576040519150601f19603f3d011682016040523d82523d6000602084013e610d65565b606091505b5050905080610da0576040517fba31c4f300000000000000000000000000000000000000000000000000000000815260040160405180910390fd5b8173ffffffffffffffffffffffffffffffffffffffff167f5b690ec4a06fe979403046eaeea5b3ce38524683c3001f662c8b5a829632f7df60405160405180910390a25050505050565b60008054906101000a900473ffffffffffffffffffffffffffffffffffffffff1673ffffffffffffffffffffffffffffffffffffffff163373ffffffffffffffffffffffffffffffffffffffff1614610e78576040517f08c379a0000000000000000000000000000000000000000000000000000000008152600401610e6f906115be565b60405180910390fd5b565b3373ffffffffffffffffffffffffffffffffffffffff168173ffffffffffffffffffffffffffffffffffffffff161415610ee9576040517f08c379a0000000000000000000000000000000000000000000000000000000008152600401610ee0906115de565b60405180910390fd5b80600160006101000a81548173ffffffffffffffffffffffffffffffffffffffff021916908373ffffffffffffffffffffffffffffffffffffffff1602179055508073ffffffffffffffffffffffffffffffffffffffff1660008054906101000a900473ffffffffffffffffffffffffffffffffffffffff1673ffffffffffffffffffffffffffffffffffffffff167fed8889f560326eb138920d842192f0eb3dd22b4f139c87a2c57538e05bae127860405160405180910390a350565b828054828255906000526020600020908101928215611020579160200282015b8281111561101f5782518260006101000a81548173ffffffffffffffffffffffffffffffffffffffff021916908373ffffffffffffffffffffffffffffffffffffffff16021790555091602001919060010190610fc7565b5b50905061102d9190611031565b5090565b5b8082111561104a576000816000905550600101611032565b5090565b600061106161105c846116ba565b611695565b90508083825260208201905082856020860282011115611084576110836119c5565b5b60005b858110156110b4578161109a88826111c7565b845260208401935060208301925050600181019050611087565b5050509392505050565b60006110d16110cc846116e6565b611695565b9050828152602081018484840111156110ed576110ec6119ca565b5b6110f884828561182c565b509392505050565b60008135905061110f81611a7c565b92915050565b600082601f83011261112a576111296119c0565b5b813561113a84826020860161104e565b91505092915050565b60008083601f840112611159576111586119c0565b5b8235905067ffffffffffffffff811115611176576111756119bb565b5b602083019150836001820283011115611192576111916119c5565b5b9250929050565b600082601f8301126111ae576111ad6119c0565b5b81356111be8482602086016110be565b91505092915050565b6000813590506111d681611a93565b92915050565b6000815190506111eb81611a93565b92915050565b600060208284031215611207576112066119d4565b5b600061121584828501611100565b91505092915050565b60008060208385031215611235576112346119d4565b5b600083013567ffffffffffffffff811115611253576112526119cf565b5b61125f85828601611143565b92509250509250929050565b600060208284031215611281576112806119d4565b5b600082013567ffffffffffffffff81111561129f5761129e6119cf565b5b6112ab84828501611199565b91505092915050565b6000602082840312156112ca576112c96119d4565b5b60006112d8848285016111c7565b91505092915050565b6000602082840312156112f7576112f66119d4565b5b6000611305848285016111dc565b91505092915050565b60008060408385031215611325576113246119d4565b5b6000611333858286016111c7565b925050602083013567ffffffffffffffff811115611354576113536119cf565b5b61136085828601611115565b9150509250929050565b61137381611783565b82525050565b61138281611795565b82525050565b611391816117a1565b82525050565b60006113a282611717565b6113ac8185611722565b93506113bc81856020860161183b565b6113c5816119d9565b840191505092915050565b6113d98161181a565b82525050565b60006113ec60168361173e565b91506113f7826119ea565b602082019050919050565b600061140f60168361173e565b915061141a82611a13565b602082019050919050565b6000611432600083611733565b915061143d82611a3c565b600082019050919050565b600061145560178361173e565b915061146082611a3f565b602082019050919050565b611474816117be565b82525050565b611483816117ec565b82525050565b611492816117f6565b82525050565b6114a181611806565b82525050565b60006114b282611425565b9150819050919050565b60006020820190506114d1600083018461136a565b92915050565b60006040820190506114ec600083018561136a565b6114f9602083018461136a565b9392505050565b60006040820190506115156000830185611379565b81810360208301526115278184611397565b90509392505050565b600060a0820190506115456000830188611388565b6115526020830187611498565b61155f604083018661146b565b61156c6060830185611489565b6115796080830184611489565b9695505050505050565b600060208201905061159860008301846113d0565b92915050565b600060208201905081810360008301526115b7816113df565b9050919050565b600060208201905081810360008301526115d781611402565b9050919050565b600060208201905081810360008301526115f781611448565b9050919050565b6000602082019050611613600083018461147a565b92915050565b600060c08201905061162e600083018961147a565b61163b602083018861147a565b611648604083018761147a565b611655606083018661147a565b611662608083018561147a565b61166f60a0830184611379565b979650505050505050565b600060208201905061168f6000830184611489565b92915050565b600061169f6116b0565b90506116ab828261186e565b919050565b6000604051905090565b600067ffffffffffffffff8211156116d5576116d461198c565b5b602082029050602081019050919050565b600067ffffffffffffffff8211156117015761170061198c565b5b61170a826119d9565b9050602081019050919050565b600081519050919050565b600082825260208201905092915050565b600081905092915050565b600082825260208201905092915050565b600061175a826117ec565b9150611765836117ec565b925082821015611778576117776118d0565b5b828203905092915050565b600061178e826117cc565b9050919050565b60008115159050919050565b6000819050919050565b60008190506117b982611a68565b919050565b600061ffff82169050919050565b600073ffffffffffffffffffffffffffffffffffffffff82169050919050565b6000819050919050565b600063ffffffff82169050919050565b600067ffffffffffffffff82169050919050565b6000611825826117ab565b9050919050565b82818337600083830152505050565b60005b8381101561185957808201518184015260208101905061183e565b83811115611868576000848401525b50505050565b611877826119d9565b810181811067ffffffffffffffff821117156118965761189561198c565b5b80604052505050565b60006118aa826117ec565b91506118b5836117ec565b9250826118c5576118c46118ff565b5b828206905092915050565b7f4e487b7100000000000000000000000000000000000000000000000000000000600052601160045260246000fd5b7f4e487b7100000000000000000000000000000000000000000000000000000000600052601260045260246000fd5b7f4e487b7100000000000000000000000000000000000000000000000000000000600052602160045260246000fd5b7f4e487b7100000000000000000000000000000000000000000000000000000000600052603260045260246000fd5b7f4e487b7100000000000000000000000000000000000000000000000000000000600052604160045260246000fd5b600080fd5b600080fd5b600080fd5b600080fd5b600080fd5b600080fd5b6000601f19601f8301169050919050565b7f4d7573742062652070726f706f736564206f776e657200000000000000000000600082015250565b7f4f6e6c792063616c6c61626c65206279206f776e657200000000000000000000600082015250565b50565b7f43616e6e6f74207472616e7366657220746f2073656c66000000000000000000600082015250565b60028110611a7957611a7861192e565b5b50565b611a8581611783565b8114611a9057600080fd5b50565b611a9c816117ec565b8114611aa757600080fd5b5056fea2646970667358221220c2622c742efd14cb3a55bb7dc1c2b2b6378e1fc2a3631f7eb82f6b1aec80f0c064736f6c63430008070033",
  "devdoc": {
    "author": "Harshit Tripathi",
    "details": "This implements chianlink VRF2 and chainlink automation",
    "kind": "dev",
    "methods": {
      "checkUpkeep(bytes)": {
        "details": "this is function that the chainlink keeper nodes call they look for `upkeepNeeded` to return true Following should be true in order to return true 1. Our time interval should have passed 2. The lottery should have at least 1 player , and have some ETH 3. Subscription is funded with LINK 4. Lottery should be in an \"open\" state (create some state variable that will tell us wheather a lottery is open or not)"
      }
    },
    "title": "A sample Raffle Contrcat",
    "version": 1
  },
  "userdoc": {
    "kind": "user",
    "methods": {
      "acceptOwnership()": {
        "notice": "Allows an ownership transfer to be completed by the recipient."
      },
      "owner()": {
        "notice": "Get the current owner"
      },
      "transferOwnership(address)": {
        "notice": "Allows an owner to begin transferring ownership to a new address, pending."
      }
    },
    "notice": "This contract is for creating an uuntemperable decentralized smart contract",
    "version": 1
  },
  "storageLayout": {
    "storage": [
      {
        "astId": 27,
        "contract": "contracts/Raffle.sol:Raffle",
        "label": "s_owner",
        "offset": 0,
        "slot": "0",
        "type": "t_address"
      },
      {
        "astId": 29,
        "contract": "contracts/Raffle.sol:Raffle",
        "label": "s_pendingOwner",
        "offset": 0,
        "slot": "1",
        "type": "t_address"
      },
      {
        "astId": 411,
        "contract": "contracts/Raffle.sol:Raffle",
        "label": "s_players",
        "offset": 0,
        "slot": "2",
        "type": "t_array(t_address_payable)dyn_storage"
      },
      {
        "astId": 428,
        "contract": "contracts/Raffle.sol:Raffle",
        "label": "s_lastTimeStamp",
        "offset": 0,
        "slot": "3",
        "type": "t_uint256"
      },
      {
        "astId": 432,
        "contract": "contracts/Raffle.sol:Raffle",
        "label": "s_recentWinner",
        "offset": 0,
        "slot": "4",
        "type": "t_address"
      },
      {
        "astId": 435,
        "contract": "contracts/Raffle.sol:Raffle",
        "label": "s_raffleState",
        "offset": 20,
        "slot": "4",
        "type": "t_enum(RaffleState)406"
      }
    ],
    "types": {
      "t_address": {
        "encoding": "inplace",
        "label": "address",
        "numberOfBytes": "20"
      },
      "t_address_payable": {
        "encoding": "inplace",
        "label": "address payable",
        "numberOfBytes": "20"
      },
      "t_array(t_address_payable)dyn_storage": {
        "base": "t_address_payable",
        "encoding": "dynamic_array",
        "label": "address payable[]",
        "numberOfBytes": "32"
      },
      "t_enum(RaffleState)406": {
        "encoding": "inplace",
        "label": "enum Raffle.RaffleState",
        "numberOfBytes": "1"
      },
      "t_uint256": {
        "encoding": "inplace",
        "label": "uint256",
        "numberOfBytes": "32"
      }
    }
  }
}